:020000040800F2
:1000000000280020A90A0008ED070008F3070008EF
:10001000F9070008FF0700080508000800000000B5
:100020000000000000000000000000000B080008B5
:100030001708000800000000230800082F08000827
:10004000F10A0008F10A0008F10A0008F10A0008A4
:10005000F10A0008F10A0008F10A0008F10A000894
:10006000F10A0008F10A0008F10A0008F10A000884
:10007000F10A0008F10A0008F10A0008F10A000874
:10008000F10A0008F10A0008F10A0008F10A000864
:10009000F10A0008F10A0008F10A0008F10A000854
:1000A000F10A0008F10A0008F10A0008F10A000844
:1000B0003D080008F10A000800000000F10A0008ED
:1000C000F10A00080000000000000000F10A00082A
:1000D00000000000F10A0008F10A0008000000001A
:1000E000F10A0008F10A0008F10A00080000000007
:1000F0000000000000000000000000000000000000
:0C01000000000000000000005FF808F1A3
:10010C0010B5054C237833B9044B13B10448AFF345
:10011C0000800123237010BD880000200000000027
:10012C006C31000808B5034B1BB103490348AFF30E
:10013C00008008BD000000008C0000206C3100081D
:10014C0080B500AF00F016F900BF80BD80B500AFE0
:10015C00224B1B68224A1360224B1B681F4A1360F8
:10016C004FF40051204800F0A9FF03461A461D4BDE
:10017C001A601B4B1A68194B1B689A422BD1174BF0
:10018C001A68184B1B689A4225D1184B1A68154BE4
:10019C001B689A420DD0134B1B68144A1360114B09
:1001AC001B68002B17D1124BC8221A60FFF7C8FF2F
:1001BC0011E00F4B1B68013B0D4A13600C4B1B6885
:1001CC00002B08D1074B1B68002B01D1FFF7B8FFA0
:1001DC00074BC8221A6000BF80BD00BF040000207E
:1001EC000000002008000020000801400C00002046
:1001FC001000002080B582B000AF786001224FF46F
:10020C007E414F4800F071FF7B68092B00F294800F
:10021C0001A252F823F000BF4D020008670200084B
:10022C00810200089B020008B5020008CF020008FA
:10023C00E9020008030300081D0300082B03000853
:10024C0000224FF4FC413E4800F04FFF01224FF4D6
:10025C0000413B4800F049FF6EE000224FF4406142
:10026C00374800F042FF01224FF47241344800F04D
:10027C003CFF61E000224FF43641314800F035FF7D
:10028C0001224FF490412E4800F02FFF54E0002241
:10029C004FF41E412A4800F028FF01224FF4C041C0
:1002AC00274800F022FF47E000224FF44C4124483D
:1002BC0000F01BFF01224FF44851214800F015FFBC
:1002CC003AE000224FF45A411D4800F00EFF012283
:1002DC004FF410511A4800F008FF2DE000224FF4A3
:1002EC007A41174800F001FF01224FF48061144855
:1002FC0000F0FBFE20E000224FF46061104800F09B
:10030C00F4FE01224FF470410D4800F0EEFE13E0B4
:10031C0000224FF47E410A4800F0E7FE0CE0002278
:10032C004FF45E41064800F0E0FE01224FF400510C
:10033C00034800F0DAFE00BF00BF0837BD4680BDA1
:10034C00000C014080B582B000AF7860396001F0DC
:10035C00FBFE02463B68591C7B68CB1A92FBF3F1FF
:10036C0003FB01F3D21A7B68134418460837BD46C9
:10037C0080BD000080B582B000AF01220E210D4877
:10038C0000F0B3FE00237B600BE009210020FFF797
:10039C00D9FF024608497B6841F823207B6801336A
:1003AC007B607B68022BF0DD00BF00BF0837BD46C9
:1003BC0080BD00BF000C0140A400002080B400AF41
:1003CC00104B1B68002B09D10E4B5B68002B05D121
:1003DC000C4B9B68002B01D100230EE0094B1A68D3
:1003EC00084B5B689A4207D1064B5A68054B9B68D1
:1003FC009A4201D1012300E000231846BD4680BC7F
:10040C00704700BFA400002080B500AFFFF7D6FFF7
:10041C000346002B18D0374B1B68002B68D04FF4C9
:10042C00FA7000F0D5FA334B00221A6008213248DA
:10043C0000F073FE0E21314800F06FFE304B1B684C
:10044C001846FFF7D7FE53E02E4B1B68002B4CD001
:10045C004FF4FA7000F0D8FA2A4B00221A600122ED
:10046C000E21264800F041FE274B1B68032B2AD097
:10047C00032B3CDC012B02D0022B12D037E00022E4
:10048C0002211E4800F031FE1F4B1B68013B1C4A29
:10049C0052F823301846FFF7ADFE1B4B02221A60B0
:1004AC0026E000220421154800F01FFE164B1B68A5
:1004BC00013B134A52F823301846FFF79BFE124BB0
:1004CC0003221A6014E0002208210C4800F00DFEF3
:1004DC000D4B1B68013B0A4A52F823301846FFF7B4
:1004EC0089FE094B01221A6002E000BF00E000BF48
:1004FC0000BF80BDBC00002000080140000C014082
:10050C00A4000020C00000201400002080B500AF23
:10051C0000F0EAFA00F012F800F098F800F04AF84F
:10052C00054801F04BFA002000F052FA002000F0D0
:10053C006BFAFFF769FFFCE7CC00002080B590B0A8
:10054C0000AF07F1180328220021184601F0F4FD32
:10055C003B1D00221A605A609A60DA601A6102230D
:10056C00BB610123BB621023FB6200237B6307F199
:10057C001803184600F0EAFD0346002B01D000F0EA
:10058C00D3F80F237B600023BB600023FB600023A8
:10059C003B6100237B613B1D0021184601F056F89E
:1005AC000346002B01D000F0BFF800BF4037BD461A
:1005BC0080BD000080B586B000AF07F108030022B3
:1005CC001A605A609A60DA603B4600221A605A60E0
:1005DC001D4B4FF080421A601B4B41F63F725A6024
:1005EC00194B00229A60184B0922DA60164B002234
:1005FC001A61154B00229A61134801F08FF90346DA
:10060C00002B01D000F090F84FF48053BB6007F141
:10061C00080319460C4801F025FB0346002B01D0BA
:10062C0000F082F800233B6000237B603B461946B8
:10063C00054801F0EDFC0346002B01D000F074F8E6
:10064C0000BF1837BD4680BDCC00002080B586B0F9
:10065C0000AF07F1080300221A605A609A60DA6052
:10066C00284B9B69274A43F004039361254B9B69F4
:10067C0003F004037B607B68224B9B69214A43F0A7
:10068C00080393611F4B9B6903F008033B603B68B5
:10069C00002208211C4800F028FD00224FF60E61B4
:1006AC001A4800F022FD0823BB600123FB600023E5
:1006BC003B6102237B6107F108031946124800F0E5
:1006CC0083FB4FF60E63BB600123FB6000233B6191
:1006DC0002237B6107F1080319460C4800F074FBF8
:1006EC004FF40053BB600023FB6001233B6107F117
:1006FC0008031946044800F067FB00BF1837BD46D5
:10070C0080BD00BF0010024000080140000C0140F9
:10071C0080B582B000AF786000F092F9FFF716FD5B
:10072C0000BF0837BD4680BD80B400AF72B600BFB5
:10073C00FEE7000080B485B000AF154B9B69144AEE
:10074C0043F001039361124B9B6903F00103BB60FF
:10075C00BB680F4BDB690E4A43F08053D3610C4BE3
:10076C00DB6903F080537B607B680A4B5B68FB6042
:10077C00FB6823F0E063FB60FB6843F08063FB6085
:10078C00044AFB68536000BF1437BD4680BC7047F9
:10079C00001002400000014080B584B000AF7860CA
:1007AC007B681B68B3F1804F13D10C4BDB690B4A90
:1007BC0043F00103D361094BDB6903F00103FB60D8
:1007CC00FB68002200211C2000F0C7FA1C2000F05E
:1007DC00E0FA00BF1037BD4680BD00BF00100240DC
:1007EC0080B400AFFEE780B400AFFEE780B400AF8A
:1007FC00FEE780B400AFFEE780B400AFFEE780B444
:10080C0000AF00BFBD4680BC704780B400AF00BFD6
:10081C00BD4680BC704780B400AF00BFBD4680BCF5
:10082C00704780B500AF00F0A5F900BF80BD000097
:10083C0080B500AF024801F00DF900BF80BD00BFCC
:10084C00CC00002080B400AF01231846BD4680BC0C
:10085C00704780B582B000AF7860396001F042FC1F
:10086C00034616221A604FF0FF3318460837BD4670
:10087C0080BD80B582B000AF78604FF0FF317868F2
:10088C00FFF7E7FFFEE780B586B000AFF860B96010
:10089C007A6000237B610AE0AFF300800146BB68FD
:1008AC005A1CBA60CAB21A707B6901337B617A69CF
:1008BC007B689A42F0DB7B6818461837BD4680BDD2
:1008CC0080B586B000AFF860B9607A6000237B61B8
:1008DC0009E0BB685A1CBA601B781846AFF300805D
:1008EC007B6901337B617A697B689A42F1DB7B68B7
:1008FC0018461837BD4680BD80B483B000AF786011
:10090C004FF0FF3318460C37BD4680BC704780B49F
:10091C0083B000AF786039603B684FF400525A6086
:10092C00002318460C37BD4680BC704780B483B09A
:10093C0000AF7860012318460C37BD4680BC704769
:10094C0080B485B000AFF860B9607A6000231846B7
:10095C001437BD4680BC704780B586B000AF786058
:10096C00144A154BD31A7B617B693B61134B1B6893
:10097C00002B02D1114B124A1A60104B1A687B687B
:10098C0013443A699A4207D201F0ACFB03460C229D
:10099C001A604FF0FF3309E0084B1B68FB60074BF4
:1009AC001A687B681344054A1360FB6818461837AD
:1009BC00BD4680BD0028002000040000B0000020CF
:1009CC002801002080B400AF00BFBD4680BC70473A
:1009DC0080B483B000AF78607B68084A82FB031256
:1009EC009210DB17D31A064A1360064B01221A60C9
:1009FC0000BF0C37BD4680BC704700BF676666669B
:100A0C00B4000020BC00002080B483B000AF78603C
:100A1C007B68084A82FB03129210DB17D31A064A32
:100A2C001360064B01221A6000BF0C37BD4680BC18
:100A3C00704700BF67666666B8000020C0000020E3
:100A4C0080B400AF114B1B68002B0BDD0F4B1B68E8
:100A5C00013B0E4A13600D4B1B68002B02D10C4B53
:100A6C0001221A600B4B1B68002B0BDD094B1B681A
:100A7C00013B084A1360074B1B68002B02D1064B45
:100A8C0001221A6000BFBD4680BC7047B400002034
:100A9C00BC000020B8000020C00000200C480D490C
:100AAC000D4A002302E0D458C4500433C4188C42BD
:100ABC00F9D30A4A0A4C002301E013600432A24223
:100ACC00FBD3FFF77FFF01F013FBFFF71FFD704710
:100ADC000000002088000020F83200088800002068
:100AEC0028010020FEE7000080B500AF084B1B6812
:100AFC00074A43F010031360032000F023F90F2082
:100B0C0000F008F8FFF716FE0023184680BD00BF62
:100B1C000020024080B582B000AF7860124B1A689A
:100B2C00124B1B7819464FF47A73B3FBF1F3B2FBFB
:100B3C00F3F3184600F03BF90346002B01D00123D8
:100B4C000EE07B680F2B0AD8002279684FF0FF303B
:100B5C0000F003F9064A7B681360002300E00123D0
:100B6C0018460837BD4680BD180000202000002024
:100B7C001C00002080B400AF054B1B781A46054BB7
:100B8C001B681344034A136000BFBD4680BC70470A
:100B9C00200000201401002080B400AF024B1B6821
:100BAC001846BD4680BC70471401002080B485B047
:100BBC0000AF78607B6803F00703FB600C4BDB68CD
:100BCC00BB60BA684FF6FF031340BB60FB681A02A8
:100BDC00BB68134343F0BF6343F40033BB60044A68
:100BEC00BB68D36000BF1437BD4680BC704700BFE4
:100BFC0000ED00E080B400AF044BDB681B0A03F08F
:100C0C0007031846BD4680BC704700BF00ED00E0EE
:100C1C0080B483B000AF0346FB7197F90730002B0B
:100C2C000BDBFB7903F01F02064997F907305B09D0
:100C3C00012000FA02F241F8232000BF0C37BD4618
:100C4C0080BC704700E100E080B483B000AF034685
:100C5C003960FB7197F90730002B0ADB3B68DAB27D
:100C6C000C4997F907301201D2B20B4483F80023D8
:100C7C000AE03B68DAB20849FB7903F00F03043B46
:100C8C001201D2B20B441A7600BF0C37BD4680BCA1
:100C9C00704700BF00E100E000ED00E080B489B0D7
:100CAC0000AFF860B9607A60FB6803F00703FB6182
:100CBC00FB69C3F10703042B28BF0423BB61FB6949
:100CCC000433062B02D9FB69033B00E000237B6154
:100CDC004FF0FF32BB6902FA03F3DA43BB681A40E8
:100CEC007B699A404FF0FF317B6901FA03F3D943DA
:100CFC007B680B40134318462437BD4680BC7047B5
:100D0C0080B582B000AF78607B68013BB3F1807F27
:100D1C0001D301230FE00A4A7B68013B53600F218A
:100D2C004FF0FF30FFF790FF054B00229A60044B09
:100D3C0007221A60002318460837BD4680BD00BF45
:100D4C0010E000E080B582B000AF78607868FFF703
:100D5C002DFF00BF0837BD4680BD80B586B000AF03
:100D6C000346B9607A60FB7300237B61FFF742FF97
:100D7C0078617A68B9687869FFF790FF024697F94D
:100D8C000F3011461846FFF75FFF00BF1837BD46FE
:100D9C0080BD80B582B000AF0346FB7197F9073078
:100DAC001846FFF735FF00BF0837BD4680BD80B53C
:100DBC0082B000AF78607868FFF7A2FF0346184650
:100DCC000837BD4680BD000080B48BB000AF7860A2
:100DDC00396000237B6200233B6248E101227B6A7D
:100DEC0002FA03F3FB613B681B68FA691340BB61B1
:100DFC00BA69FB699A4240F037813B685B68A34A49
:100E0C0093425ED0A14A934275D8A14A934258D0DE
:100E1C009F4A93426FD89F4A934252D09D4A934225
:100E2C0069D89D4A93424CD09B4A934263D89B4AC3
:100E3C00934246D0994A93425DD8122B2AD8122B52
:100E4C0059D801A252F823F0CF0E0008A90E0008C1
:100E5C00BB0E0008FD0E0008030F0008030F00086E
:100E6C00030F0008030F0008030F0008030F00080E
:100E7C00030F0008030F0008030F0008030F0008FE
:100E8C00030F0008030F0008030F0008B10E000841
:100E9C00C50E0008824A934213D02CE03B68DB68F5
:100EAC003B6229E03B68DB6804333B6224E03B682F
:100EBC00DB6808333B621FE03B68DB680C333B624A
:100ECC001AE03B689B68002B02D104233B6213E0C1
:100EDC003B689B68012B05D108233B627B68FA6950
:100EEC001A6109E008233B627B68FA695A6103E0E6
:100EFC0000233B6200E000BFBB69FF2B01D87B687D
:100F0C0001E07B6804337B61BB69FF2B02D87B6AF1
:100F1C009B0002E07B6A083B9B003B617B691A6883
:100F2C000F213B6901FA03F3DB431A40396A3B6931
:100F3C0001FA03F31A437B691A603B685B6803F0A0
:100F4C008053002B00F09080564B9B69554A43F020
:100F5C0001039361534B9B6903F00103BB60BB68B6
:100F6C00514A7B6A9B08023352F82330FB607B6A40
:100F7C0003F003039B000F2202FA03F3DB43FA682E
:100F8C001340FB607B68494A93420DD07B68484A0A
:100F9C00934207D07B68474A934201D1022304E075
:100FAC00032302E0012300E000237A6A02F003022B
:100FBC0092009340FA681343FB603B497B6A9B08A1
:100FCC000233FA6841F823203B685B6803F48033F2
:100FDC00002B06D0384B1A683749BB6913430B609A
:100FEC0006E0354B1A68BB69DB43334913400B6091
:100FFC003B685B6803F40033002B06D02E4B5A6819
:10100C002D49BB6913434B6006E02B4B5A68BB69F7
:10101C00DB43294913404B603B685B6803F4801346
:10102C00002B06D0244B9A682349BB6913438B6071
:10103C0006E0214B9A68BB69DB431F4913408B6068
:10104C003B685B6803F40013002B06D01A4BDA687C
:10105C001949BB691343CB6006E0174BDA68BB69CF
:10106C00DB4315491340CB607B6A01337B623B68E1
:10107C001A687B6A22FA03F3002B7FF4AFAE00BF31
:10108C0000BF2C37BD4680BC704700BF000032103B
:10109C00000031100000221000002110000012107E
:1010AC000000111000100240000001400008014037
:1010BC00000C0140001001400004014080B485B0D8
:1010CC0000AF78600B467B807B689A687B88134006
:1010DC00002B02D00123FB7301E00023FB73FB7B8D
:1010EC0018461437BD4680BC704780B483B000AF3F
:1010FC0078600B467B8013467B707B78002B03D08B
:10110C007A887B681A6103E07B881A047B681A6111
:10111C0000BF0C37BD4680BC704780B485B000AFB3
:10112C0078600B467B807B68DB68FB607A88FB68A9
:10113C0013401A04FB68D9437B880B401A437B6825
:10114C001A6100BF1437BD4680BC704780B586B0AD
:10115C0000AF78607B68002B01D101236CE27B68C7
:10116C001B6803F00103002B00F08780924B5B6837
:10117C0003F00C03042B0CD08F4B5B6803F00C03B7
:10118C00082B12D18C4B5B6803F48033B3F5803F92
:10119C000BD1894B1B6803F40033002B6CD07B689C
:1011AC005B68002B68D1012346E27B685B68B3F572
:1011BC00803F06D1804B1B687F4A43F48033136019
:1011CC002EE07B685B68002B0CD17B4B1B687A4A4A
:1011DC0023F480331360784B1B68774A23F4802305
:1011EC0013601DE07B685B68B3F5A02F0CD1724BCC
:1011FC001B68714A43F4802313606F4B1B686E4A63
:10120C0043F4803313600BE06B4B1B686A4A23F486
:10121C0080331360684B1B68674A23F48023136088
:10122C007B685B68002B13D0FFF7B6FC386108E0D5
:10123C00FFF7B2FC02463B69D31A642B01D9032396
:10124C00FAE15D4B1B6803F40033002BF0D014E083
:10125C00FFF7A2FC386108E0FFF79EFC02463B69F1
:10126C00D31A642B01D90323E6E1534B1B6803F417
:10127C000033002BF0D100E000BF7B681B6803F04B
:10128C000203002B63D04C4B5B6803F00C03002B68
:10129C000BD0494B5B6803F00C03082B1CD1464B5D
:1012AC005B6803F48033002B16D1434B1B6803F0AF
:1012BC000203002B05D07B681B69012B01D0012395
:1012CC00BAE13D4B1B6823F0F8027B685B69DB00DD
:1012DC00394913430B603AE07B681B69002B20D023
:1012EC00364B01221A60FFF757FC386108E0FFF714
:1012FC0053FC02463B69D31A022B01D903239BE111
:10130C002D4B1B6803F00203002BF0D02A4B1B68FB
:10131C0023F0F8027B685B69DB00274913430B6001
:10132C0015E0264B00221A60FFF736FC386108E006
:10133C00FFF732FC02463B69D31A022B01D9032377
:10134C007AE11D4B1B6803F00203002BF0D17B6884
:10135C001B6803F00803002B3AD07B689B69002BB9
:10136C0019D0174B01221A60FFF716FC386108E000
:10137C00FFF712FC02463B69D31A022B01D9032357
:10138C005AE10D4B5B6A03F00203002BF0D00120F5
:10139C0000F0A6FA1CE00A4B00221A60FFF7FCFBD7
:1013AC0038610FE0FFF7F8FB02463B69D31A022BBA
:1013BC0008D9032340E100BF001002400000424264
:1013CC00800442429E4B5B6A03F00203002BE9D17E
:1013DC007B681B6803F00403002B00F0A68000233D
:1013EC00FB75974BDB6903F08053002B0DD1944BAD
:1013FC00DB69934A43F08053D361914BDB6903F073
:10140C008053BB60BB680123FB758E4B1B6803F4D8
:10141C008073002B18D18B4B1B688A4A43F4807362
:10142C001360FFF7B9FB386108E0FFF7B5FB024624
:10143C003B69D31A642B01D90323FDE0814B1B6854
:10144C0003F48073002BF0D07B68DB68012B06D192
:10145C007B4B1B6A7A4A43F0010313622DE07B68D5
:10146C00DB68002B0CD1764B1B6A754A23F0010309
:10147C001362734B1B6A724A23F0040313621CE061
:10148C007B68DB68052B0CD16D4B1B6A6C4A43F0F7
:10149C00040313626A4B1B6A694A43F0010313622B
:1014AC000BE0674B1B6A664A23F001031362644B23
:1014BC001B6A634A23F0040313627B68DB68002B0E
:1014CC0015D0FFF769FB38610AE0FFF765FB0246B0
:1014DC003B69D31A41F28832934201D90323ABE022
:1014EC00574B1B6A03F00203002BEED014E0FFF7FE
:1014FC0053FB38610AE0FFF74FFB02463B69D31AF6
:10150C0041F28832934201D9032395E04C4B1B6A7C
:10151C0003F00203002BEED1FB7D012B05D1484BD0
:10152C00DB69474A23F08053D3617B68DB69002B6E
:10153C0000F08180424B5B6803F00C03082B61D0F8
:10154C007B68DB69022B46D13F4B00221A60FFF708
:10155C0023FB386108E0FFF71FFB02463B69D31AF7
:10156C00022B01D9032367E0354B1B6803F0007392
:10157C00002BF0D17B681B6AB3F5803F08D1304B50
:10158C005B6823F400327B689B682D4913434B60E6
:10159C002B4B5B6823F474127B68196A7B685B6A5B
:1015AC000B43274913434B60274B01221A60FFF76B
:1015BC00F3FA386108E0FFF7EFFA02463B69D31AF9
:1015CC00022B01D9032337E01D4B1B6803F000737A
:1015DC00002BF0D02FE01C4B00221A60FFF7DCFA36
:1015EC00386108E0FFF7D8FA02463B69D31A022BA0
:1015FC0001D9032320E0124B1B6803F00073002B6E
:10160C00F0D118E07B68DB69012B01D1012313E0D9
:10161C000B4B5B68FB60FB6803F480327B681B6AD6
:10162C009A4206D1FB6803F470127B685B6A9A429B
:10163C0001D0012300E0002318461837BD4680BDB9
:10164C0000100240007000406000424280B584B03F
:10165C0000AF786039607B68002B01D10123D0E0AA
:10166C006A4B1B6803F007033A689A4210D9674B20
:10167C001B6823F0070265493B6813430B60634BFF
:10168C001B6803F007033A689A4201D00123B8E0C3
:10169C007B681B6803F00203002B20D07B681B685F
:1016AC0003F00403002B05D0594B5B68584A43F4F4
:1016BC00E06353607B681B6803F00803002B05D0C4
:1016CC00534B5B68524A43F460535360504B5B6816
:1016DC0023F0F0027B689B684D4913434B607B6899
:1016EC001B6803F00103002B40D07B685B68012B67
:1016FC0007D1474B1B6803F40033002B15D1012392
:10170C007FE07B685B68022B07D1414B1B6803F0C1
:10171C000073002B09D1012373E03D4B1B6803F0D0
:10172C000203002B01D101236BE0394B5B6823F0E2
:10173C0003027B685B68364913434B60FFF72CFA56
:10174C00F8600AE0FFF728FA0246FB68D31A41F268
:10175C008832934201D9032353E02D4B5B6803F08D
:10176C000C027B685B689B009A42EBD1274B1B6891
:10177C0003F007033A689A4210D2244B1B6823F0FB
:10178C00070222493B6813430B60204B1B6803F094
:10179C0007033A689A4201D0012332E07B681B6848
:1017AC0003F00403002B08D0194B5B6823F4E062B0
:1017BC007B68DB68164913434B607B681B6803F03E
:1017CC000803002B09D0124B5B6823F460527B6832
:1017DC001B69DB000E4913434B6000F021F80246F5
:1017EC000B4B5B681B0903F00F030A49CB5C22FA15
:1017FC0003F3094A1360094B1B681846FFF78AF973
:10180C00002318461037BD4680BD00BF00200240A3
:10181C000010024094310008180000201C00002029
:10182C0090B48AB000AF2A4B3C1D0FCB84E80F005C
:10183C0040F201233B800023FB610023BB610023AA
:10184C007B6200237B6100233B62224B5B68FB6164
:10185C00FB6903F00C03042B02D0082B03D02DE002
:10186C001D4B3B622DE0FB699B0C03F00F0307F152
:10187C002802134413F8243C7B61FB6903F4803386
:10188C00002B13D0134B5B685B0C03F0010307F1C7
:10189C002802134413F8283CBB617B690E4A02FBF7
:1018AC0003F2BB69B2FBF3F37B6204E07B690B4A86
:1018BC0002FB03F37B627B6A3B6202E0064B3B62FA
:1018CC0000BF3B6A18462837BD4690BC704700BF26
:1018DC00843100080010024000127A0000093D001B
:1018EC0080B485B000AF78600A4B1B680A4AA2FB33
:1018FC0003235B0A7A6802FB03F3FB6000BFFB68FF
:10190C005A1EFA60002BF9D100BF00BF1437BD4638
:10191C0080BC704718000020D34D621080B582B097
:10192C0000AF78607B68002B01D1012341E07B681C
:10193C0093F83D30DBB2002B06D17B68002283F894
:10194C003C207868FEF728FF7B68022283F83D2054
:10195C007B681A687B6804331946104600F06AFAF3
:10196C007B68012283F846207B68012283F83E20A5
:10197C007B68012283F83F207B68012283F840209A
:10198C007B68012283F841207B68012283F8422086
:10199C007B68012283F843207B68012283F8442072
:1019AC007B68012283F845207B68012283F83D2067
:1019BC00002318460837BD4680BD000080B485B0B2
:1019CC0000AF78607B6893F83D30DBB2012B01D01F
:1019DC00012335E07B68022283F83D207B681B687D
:1019EC00DA687B681B6842F00102DA607B681B686E
:1019FC00164A934209D07B681B68B3F1804F04D020
:101A0C007B681B68124A934211D17B681B689B68E8
:101A1C0003F00703FB60FB68062B10D07B681B6888
:101A2C001A687B681B6842F001021A6007E07B6849
:101A3C001B681A687B681B6842F001021A6000235D
:101A4C0018461437BD4680BC704700BF002C0140BF
:101A5C000004004080B582B000AF78607B681B68E2
:101A6C001B6903F00203022B22D17B681B68DB6825
:101A7C0003F00203022B1BD17B681B686FF0020280
:101A8C001A617B6801221A777B681B689B6903F0DB
:101A9C000303002B03D0786800F0B1F905E07868F7
:101AAC0000F0A4F9786800F0B3F97B6800221A778B
:101ABC007B681B681B6903F00403042B22D17B6831
:101ACC001B68DB6803F00403042B1BD17B681B68C9
:101ADC006FF004021A617B6802221A777B681B681C
:101AEC009B6903F44073002B03D0786800F087F9EE
:101AFC0005E0786800F07AF9786800F089F97B687D
:101B0C0000221A777B681B681B6903F00803082BFB
:101B1C0022D17B681B68DB6803F00803082B1BD100
:101B2C007B681B686FF008021A617B6804221A77C5
:101B3C007B681B68DB6903F00303002B03D0786818
:101B4C0000F05DF905E0786800F050F9786800F075
:101B5C005FF97B6800221A777B681B681B6903F0AE
:101B6C001003102B22D17B681B68DB6803F0100379
:101B7C00102B1BD17B681B686FF010021A617B68FD
:101B8C0008221A777B681B68DB6903F44073002B0F
:101B9C0003D0786800F033F905E0786800F026F996
:101BAC00786800F035F97B6800221A777B681B682F
:101BBC001B6903F00103012B0ED17B681B68DB68EA
:101BCC0003F00103012B07D17B681B686FF0010246
:101BDC001A617868FEF79CFD7B681B681B6903F033
:101BEC008003802B0ED17B681B68DB6803F08003BD
:101BFC00802B07D17B681B686FF080021A617868B4
:101C0C0000F067FA7B681B681B6903F04003402BEC
:101C1C000ED17B681B68DB6803F04003402B07D1B7
:101C2C007B681B686FF040021A61786800F0F9F865
:101C3C007B681B681B6903F02003202B0ED17B688B
:101C4C001B68DB6803F02003202B07D17B681B6823
:101C5C006FF020021A61786800F032FA00BF083782
:101C6C00BD4680BD80B584B000AF786039607B68BC
:101C7C0093F83C30012B01D10223B3E07B680122A5
:101C8C0083F83C207B68022283F83D207B681B682C
:101C9C009B68FB60FB6823F07703FB60FB6823F415
:101CAC007F43FB607B681B68FA689A603B681B6823
:101CBC00B3F5005F3ED0B3F5005F00F28780B3F55B
:101CCC00805F00F08580B3F5805F7FD8702B1AD0D1
:101CDC00702B7BD8602B50D0602B77D8502B3CD0FE
:101CEC00502B73D8402B58D0402B6FD8302B64D04E
:101CFC00302B6BD8202B60D0202B67D8002B5CD0DE
:101D0C00102B5AD062E07B6818683B6899683B6876
:101D1C005A683B68DB6800F05CF97B681B689B6861
:101D2C00FB60FB6843F07703FB607B681B68FA6819
:101D3C009A604EE07B6818683B6899683B685A6803
:101D4C003B68DB6800F045F97B681B689A687B6828
:101D5C001B6842F480429A603BE07B6818683B68E1
:101D6C0059683B68DB681A4600F0BCF87B681B6856
:101D7C005021184600F013F92BE07B6818683B687B
:101D8C0059683B68DB681A4600F0DAF87B681B6818
:101D9C006021184600F003F91BE07B6818683B686B
:101DAC0059683B68DB681A4600F09CF87B681B6836
:101DBC004021184600F0F3F80BE07B681A683B688A
:101DCC001B681946104600F0EAF802E000BF00E07C
:101DDC0000BF7B68012283F83D207B68002283F8DA
:101DEC003C20002318461037BD4680BD80B483B01C
:101DFC0000AF786000BF0C37BD4680BC704780B424
:101E0C0083B000AF786000BF0C37BD4680BC704714
:101E1C0080B483B000AF786000BF0C37BD4680BC87
:101E2C00704780B483B000AF786000BF0C37BD46FC
:101E3C0080BC704780B485B000AF786039607B6837
:101E4C001B68FB607B68254A934207D07B68B3F123
:101E5C00804F03D07B68224A934208D1FB6823F061
:101E6C007003FB603B685B68FA681343FB607B683C
:101E7C001A4A934207D07B68B3F1804F03D07B683A
:101E8C00174A934208D1FB6823F44073FB603B680C
:101E9C00DB68FA681343FB60FB6823F080023B6845
:101EAC005B691343FB607B68FA681A603B689A684D
:101EBC007B68DA623B681A687B689A627B68074ABF
:101ECC00934203D13B681A697B681A637B680122D1
:101EDC005A6100BF1437BD4680BC7047002C0140CE
:101EEC000004004080B487B000AFF860B9607A603D
:101EFC00FB681B6A7B61FB681B6A23F00102FB68B1
:101F0C001A62FB689B693B613B6923F0F0033B6100
:101F1C007B681B013A6913433B617B6923F00A031D
:101F2C007B617A69BB6813437B61FB683A699A6190
:101F3C00FB687A691A6200BF1C37BD4680BC7047CB
:101F4C0080B487B000AFF860B9607A60FB681B6A38
:101F5C0023F01002FB681A62FB689B697B61FB68CB
:101F6C001B6A3B617B6923F470437B617B681B03B9
:101F7C007A6913437B613B6923F0A0033B61BB6827
:101F8C001B013A6913433B61FB687A699A61FB68F0
:101F9C003A691A6200BF1C37BD4680BC704780B4DA
:101FAC0085B000AF786039607B689B68FB60FB682C
:101FBC0023F07003FB603A68FB68134343F007039C
:101FCC00FB607B68FA689A6000BF1437BD4680BC22
:101FDC00704780B487B000AFF860B9607A603B603E
:101FEC00FB689B687B617B6923F47F437B613B6867
:101FFC001A027B681A43BB6813437A6913437B61EB
:10200C00FB687A699A6000BF1C37BD4680BC70477C
:10201C0080B485B000AF786039607B6893F83C3051
:10202C00012B01D1022341E07B68012283F83C2083
:10203C007B68022283F83D207B681B685B68FB6031
:10204C007B681B689B68BB60FB6823F07003FB60BC
:10205C003B681B68FA681343FB607B681B68FA6873
:10206C005A607B681B68144A934209D07B681B68D2
:10207C00B3F1804F04D07B681B68104A93420CD19B
:10208C00BB6823F08003BB603B685B68BA68134392
:10209C00BB607B681B68BA689A607B68012283F816
:1020AC003D207B68002283F83C200023184614371F
:1020BC00BD4680BC704700BF002C014000040040AE
:1020CC0080B483B000AF786000BF0C37BD4680BCD5
:1020DC00704780B483B000AF786000BF0C37BD464A
:1020EC0080BC7047014B1868704700BF240000206B
:1020FC0070B500260C4D0D4C641BA410A64209D1E2
:10210C0001F02EF800260A4D0A4C641BA410A642BE
:10211C0005D170BD55F8043B98470136EEE755F8EC
:10212C00043B98470136F2E7F0320008F032000821
:10213C00F0320008F432000803460244934200D106
:10214C00704703F8011BF9E7174B10B51C68A36B1C
:10215C00B3B9182000F068F80246A06320B94E21EC
:10216C00124B134800F030F81249134BC0E900131E
:10217C00124B002183600B2383810120C2E90401EF
:10218C00A16B0F480A694B6950430E4C04FB0300CA
:10219C00A2FB04345A1C044444F10000C1E904209D
:1021AC0020F0004010BD00BF24000020A831000822
:1021BC00BF3100080E33CDAB34126DE6ECDE0500FA
:1021CC002DF451582D7F954C1FB514461A46094BCA
:1021DC0005461B68D8684CB1074BCDE9013400911A
:1021EC002B46064900F00EF800F08AFC044B1C4606
:1021FC00F3E700BF240000201E3200082B32000839
:10220C00593200080EB403B5014603AB054853F828
:10221C00042B0068019300F0DDF802B05DF804EBCC
:10222C0003B0704724000020024B0146186800F0F0
:10223C004FB800BF2400002038B50546002943D014
:10224C0051F8043C0C1F002BB8BFE41800F08CFEB6
:10225C001E4A1368104633B9636014602846BDE803
:10226C00384000F087BEA3420AD921686218934215
:10227C0001BF1A685B685218226063600460EDE766
:10228C001A465B680BB1A342FAD911685018A042E8
:10229C000BD120680144501883421160DED11868BC
:1022AC005B68014411605360D8E702D90C232B60A2
:1022BC00D4E7206821188B4201BF19685B680918A4
:1022CC00216063605460C9E738BD00BFC4000020C2
:1022DC00F8B5CD1C25F0030508350C2D38BF0C25A1
:1022EC00002D064601DBA94203D90C2333600020E4
:1022FC00F8BD00F039FE21490A6814469CB9204FFC
:10230C003B6823B92146304600F02AFB3860294649
:10231C00304600F025FB431C23D10C2330463360A0
:10232C0000F028FEE3E723685B1B17D40B2B03D9C3
:10233C0023601C44256004E06368A2420CBF0B6060
:10234C005360304600F016FE04F10B00231D20F004
:10235C000700C21ACCD01B1AA350C9E722466468E6
:10236C00CCE7C41C24F00304A042E3D0211A30466D
:10237C0000F0F6FA0130DDD1CFE700BFC400002039
:10238C00C8000020936810B4013B002B936007DA5F
:10239C009469A34201DB0A2902D110BC00F0F0BA07
:1023AC001368581C10601970084610BC7047F8B5BB
:1023BC0006460F461446D518AC4201D1002007E062
:1023CC003A46304614F8011BFFF7DCFF431CF3D1EF
:1023DC00F8BD00002DE9F04F0D4614469846064610
:1023EC009DB018B183690BB900F0ACFC894B9D42D0
:1023FC001BD175686B6ED90705D4AB899A0502D4CD
:10240C00A86D00F03DFDAB891B0701D52B69EBB91D
:10241C002946304600F006FBC0B16B6EDC070ED5CA
:10242C004FF0FF301DB0BDE8F08F7B4B9D4201D1CA
:10243C00B568DFE7794B9D4208BFF568DAE7AB89F1
:10244C009805EDD4A86D00F01CFDE9E70023099375
:10245C0020238DF8293030234FF00109CDF80C8062
:10246C00DFF8BC818DF82A3023469A4613F8012BED
:10247C000AB1252AF9D1BAEB040B0BD05B462246E4
:10248C0029463046FFF793FF013000F0AA80099AE5
:10249C005A4409929AF80030002B00F0A2800023D5
:1024AC004FF0FF32CDE905230AF1010A049307939B
:1024BC008DF853301A935446052214F8011B5848D2
:1024CC0000F044FD049AD8B9D10644BF20238DF8FE
:1024DC005330130744BF2B238DF853309AF8003038
:1024EC002A2B15D0544600204FF00A0C079A21468F
:1024FC0011F8013B303B092B4ED9B0B1079214E0D7
:10250C00A0EB080309FA03F31343A2460493D2E7A2
:10251C00039B191D1B680391002BBBBF5B4242F050
:10252C00020207930793B8BF049223782E2B0CD189
:10253C0063782A2B35D1039B02341A1D1B68039236
:10254C00002BB8BF4FF0FF330593DFF8E4A0032254
:10255C005046217800F0FAFC40B14023A0EB0A0071
:10256C0003FA00F0049B01340343049314F8011B99
:10257C0006222C488DF8281000F0E8FC00283FD0EB
:10258C00294B1BBB039B073323F00703083303932F
:10259C00099B3B44099367E70C4601200CFB023274
:1025AC00A5E700234FF00A0C194601340593204689
:1025BC0010F8012B303A092A03D9002BC5D005910C
:1025CC00C3E7044601230CFB0121F0E703AB0093A6
:1025DC002A463046154B04A9AFF300800746781CF9
:1025EC00D6D16B6ED90705D4AB899A0502D4A86DE8
:1025FC0000F047FCAB895B063FF512AF099811E779
:10260C0003AB00932A463046084B04A900F082F82D
:10261C00E4E700BFB0320008D03200089032000866
:10262C005A3200086432000800000000BB23000886
:10263C00603200082DE9F047164699468A680B6906
:10264C0007469342B8BF1346336091F843200C46BB
:10265C00DDF820800AB1013333602368990642BF4C
:10266C00336802333360256815F0060506D104F192
:10267C00190AE36832689B1AAB4228DC94F84320B1
:10268C00131E226818BF012392062DD449463846E2
:10269C0004F14302C047013020D02368E56803F001
:1026AC000603042B18BF002532684FF00006A36800
:1026BC0008BFAD1A226908BF25EAE5759342C4BF6D
:1026CC009B1AED181A34B5421AD1002008E00123E8
:1026DC00524649463846C047013003D14FF0FF30CF
:1026EC00BDE8F0870135C4E73020E11881F84300DC
:1026FC005A1C94F845102244023382F84310C5E763
:10270C000123224649463846C0470130E6D00136FF
:10271C00D9E700002DE9FF470C46277E9146782F1C
:10272C0080469A460C9904F1430207D8622F0AD8C6
:10273C00002F00F0D980582F00F0A48004F142063D
:10274C0084F842703AE0A7F16303152BF6D801A088
:10275C0050F823F0B9270008CD27000849270008B6
:10276C00492700084927000849270008CD270008F9
:10277C00492700084927000849270008492700086D
:10278C00DB280008FD270008BD28000849270008A1
:10279C0049270008FD28000849270008FD270008E4
:1027AC004927000849270008C52800080B6804F1D0
:1027BC0042061A1D1B680A6084F842300123A4E00B
:1027CC00256808682E0600F104030AD505680B601D
:1027DC00002D03DA2D236D4284F843300A235E4822
:1027EC0019E015F0400F05680B6018BF2DB2EFE72C
:1027FC000B682568181D0860280601D51D6802E0C5
:10280C006906FBD51D886F2F0CBF08230A2352487D
:10281C00002184F843106668002EA8BF2168A660CA
:10282C00A4BF21F0040121600DB9002E4DD0164635
:10283C00B5FBF3F103FB1157C75D06F8017D2F467D
:10284C00BB420D46F4D9082B0BD12368DF0708D502
:10285C00236961689942DEBF302306F8013C06F11A
:10286C00FF36921B22614B4621464046CDF800A014
:10287C0003AAFFF7DFFE01304CD14FF0FF3004B05C
:10288C00BDE8F087344884F845700E68236856F824
:10289C00045B1F060E6014D5D90744BF43F0200318
:1028AC0023601DB9236823F0200323601023AFE7B6
:1028BC00236843F0200323607823284884F84530AC
:1028CC00E3E75E0648BFADB2E6E71646BBE70B682A
:1028DC0026681D1D60690D6035061B6801D51860E2
:1028EC0002E07106FBD51880002316462361BAE777
:1028FC000B681A1D0A601E6800213046626800F0E1
:10290C0025FB08B1801B606063682361002384F899
:10291C004330A8E73246494640462369D047013048
:10292C00ABD023689B0713D4E068039B9842B8BFD5
:10293C001846A4E70123324649464046D0470130A9
:10294C009BD00135E36803995B1AAB42F2DCEBE7F1
:10295C00002504F11906F5E76B3200087C320008FB
:10296C0038B50023054D044608462B60FDF7F4FFEF
:10297C00431C02D12B6803B1236038BD2401002015
:10298C00F8B50E461446054618B183690BB900F02C
:10299C00D9F9214B9C422BD16C68A369A360A38904
:1029AC001A072FD523696BB323692068F6B2C01AB6
:1029BC0063693746834204DC2146284600F02EF931
:1029CC0030BBA3680130013BA36023685A1C226012
:1029DC001E706369834204D0A389DB0706D50A2ED7
:1029EC0004D12146284600F019F988B93846F8BDBB
:1029FC000A4B9C4201D1AC68CFE7094B9C4208BF03
:102A0C00EC68CAE72146284600F00CF80028CBD029
:102A1C004FF0FF37EAE700BFB0320008D0320008B1
:102A2C0090320008324B70B51D6806460C4625B135
:102A3C00AB6913B9284600F085F92E4B9C420FD197
:102A4C006C68A389B4F90C2019072CD4DD0611D4B9
:102A5C000923336042F040034FF0FF30A3813EE086
:102A6C00254B9C4201D1AC68EBE7244B9C4208BF40
:102A7C00EC68E6E7580712D5616B41B104F14403E9
:102A8C00994202D03046FFF7D7FB00236363A3893A
:102A9C0023F02403A3810023636023692360A389AB
:102AAC0043F00803A38123694BB9A38903F4207372
:102ABC00B3F5007F03D02146304600F007FAA08919
:102ACC00B4F90C2010F001030AD00023A360636951
:102ADC005B42A361236943B910F08000BAD170BD89
:102AEC00810758BF6369A360F4E70020F7E700BFD4
:102AFC0024000020B0320008D032000890320008C8
:102B0C00062008B500F064FA0120FDF7B2FE0000C3
:102B1C008A892DE9F041054610070C4658D44B68BC
:102B2C00002B05DC0B6C002B02DC0020BDE8F081D7
:102B3C00E66A002EF9D0002312F480522F682B6025
:102B4C0032D0606DA3895A0705D56368C01A636BD0
:102B5C000BB1236CC01A00230246E66A2846216A90
:102B6C00B047431CA38906D129681D292CD82A4AB1
:102B7C00CA40D60728D5002262602269D904226097
:102B8C0004D5421C01D12B6803B96065616B2F60C1
:102B9C000029CAD004F14403994202D02846FFF719
:102BAC004BFB00206063C1E7216A01232846B04734
:102BBC00411CC7D12B68002BC4D01D2B01D0162B68
:102BCC0001D12F60B1E7A38943F04003A381ADE7A6
:102BDC000F69002FA9D0930718BF00230E6808BFF8
:102BEC004B69A6EB07080F608B60B8F1000F9CDDFA
:102BFC0043463A462846216AA66AB047002806DCB6
:102C0C00A3894FF0FF3043F04003A3818EE70744C4
:102C1C00A8EB0008E9E700BF0100402038B50B69BC
:102C2C0005460C4613B90025284638BD18B18369F2
:102C3C000BB900F087F8144B9C421BD16C68B4F9AB
:102C4C000C30002BEFD0626ED00704D4990502D45F
:102C5C00A06D00F015F928462146FFF759FF636E69
:102C6C000546DA07E0D4A3899B05DDD4A06D00F0FE
:102C7C0008F9D9E7054B9C4201D1AC68DFE7044B5E
:102C8C009C4208BFEC68DAE7B0320008D03200088A
:102C9C0090320008002310B50446C0E90033C0E9A7
:102CAC000433836081814366C281836119460822A3
:102CBC005C30FFF741FA054B24626362044BA3625C
:102CCC00044BE362044B236310BD00BF15300008B6
:102CDC00373000086F30000893300008014900F0CD
:102CEC00AFB800BF292C000870B568254A1E5543A3
:102CFC000E4605F17401FFF7EBFA044640B10021D2
:102D0C00C0E900160C30A06005F16802FFF714FA58
:102D1C00204670BD014800F0B3B800BF2001002070
:102D2C00014800F0AEB800BF20010020014800F0BF
:102D3C00A7B800BF1B010020014800F0A2B800BFDB
:102D4C001B01002010B50446FFF7F0FFA3691BB16F
:102D5C00BDE81040FFF7F0BFC4E912332365134BF5
:102D6C00134A1B68A262A34208BF0123204608BF76
:102D7C00A36100F01FF86060204600F01BF8A06013
:102D8C00204600F017F800220421E0606068FFF78D
:102D9C0081FF01220921A068FFF77CFF022212218A
:102DAC00E068FFF777FF0123A361D1E7A4310008A6
:102DBC00E92C0008F8B50746FFF7ACFF1E4B1E6860
:102DCC00B36913B93046FFF7BDFF4836D6E9013475
:102DDC00013B03D533680BB33668F7E7B4F90C50F5
:102DEC00D5B9164B04F15800E360656600F047F85E
:102DFC00FFF796FF08222946C4E90155C4E904559A
:102E0C002560A56104F15C00FFF796F9C4E90D5546
:102E1C00C4E912552046F8BD6834D9E70421384678
:102E2C00FFF762FF044630600028D5D1FFF778FF2A
:102E3C000C233B60EEE700BFA43100080100FFFF4C
:102E4C002DE9F84306468846002700F14804D4E9EA
:102E5C000195B9F1010905D52468002CF7D1384644
:102E6C00BDE8F883AB89012B07D9B5F90E300133D6
:102E7C0003D029463046C04707436835E9E7704719
:102E8C007047704770B50E46B1F90E101446002904
:102E9C001D4696B007DA00232B60B3891A0610D4AE
:102EAC004FF480630EE06A4600F014F90028F2DB60
:102EBC00019A02F47042A2F500535A425A412A6018
:102ECC00EEE740230020236016B070BD8B8973B5EC
:102EDC009D0706460C4607D504F147032360236182
:102EEC000123636102B070BD6A4601ABFFF7CAFFF4
:102EFC00009905463046FFF7EBF948B9B4F90C30A8
:102F0C009A05EFD423F0030343F00203A381E3E714
:102F1C000D4BB362A389206043F08003A381009B17
:102F2C0020616361019B5BB13046B4F90E1000F077
:102F3C00E3F828B1A38923F0030343F00103A38131
:102F4C00A0890543A581CDE7E92C0008034610B5FF
:102F5C00C9B202449342184601D1002003E0047820
:102F6C0001338C42F6D110BD0148FFF789BF00BF79
:102F7C001C0100200148FFF784BF00BF1C0100208A
:102F8C001F2938B504460D4604D9162303604FF0AB
:102F9C00FF3038BD426C12B152F821304BB920468B
:102FAC0000F030F82A4601462046BDE8384000F0D3
:102FBC0017B8012B0AD0591C03D11623036001202A
:102FCC00E7E70024284642F8254098470020E0E730
:102FDC00024B01461868FFF7D3BF00BF2400002046
:102FEC0038B50023064D0446084611462B60FDF704
:102FFC0030FC431C02D12B6803B1236038BD00BFE9
:10300C0024010020FDF71EBC10B50C46B1F90E10C2
:10301C0000F094F80028ABBF636DA3891B1823F450
:10302C008053ACBF6365A38110BD2DE9F0411F46F1
:10303C008B890546DB050C46164605D50223002276
:10304C00B1F90E1000F068F8A389324623F48053CE
:10305C00A38128463B46B4F90E10BDE8F04100F0C0
:10306C0017B810B50C46B1F90E1000F055F8431C0A
:10307C00A38915BF606523F4805343F48053A38167
:10308C0018BFA38110BDB1F90E1000F013B80000E9
:10309C0038B50446084611460022054D2A601A46EA
:1030AC00FDF70EFC431C02D12B6803B1236038BD25
:1030BC002401002038B50023054D044608462B603A
:1030CC00FDF71AFC431C02D12B6803B1236038BDF9
:1030DC002401002038B50023064D0446084611464D
:1030EC002B60FDF714FC431C02D12B6803B1236049
:1030FC0038BD00BF2401002038B50023054D04461F
:10310C0008462B60FDF712FC431C02D12B6803B15F
:10311C00236038BD2401002038B50446084611460A
:10312C000022054D2A601A46FDF70AFC431C02D109
:10313C002B6803B1236038BD2401002038B5044648
:10314C00084611460022054D2A601A46FDF79BFBE6
:10315C00431C02D12B6803B1236038BD240100202D
:10316C00F8B500BFF8BC08BC9E467047F8B500BF68
:08317C00F8BC08BC9E46704738
:1031840002030405060708090A0B0C0D0E0F1010A4
:103194000000000000000000010203040607080903
:1031A400280000205245454E54206D616C6C6F63BD
:1031B40020737563636565646564002F6275696C6B
:1031C400642F676E752D746F6F6C732D666F722D1F
:1031D40073746D33325F392D323032302D71322DAC
:1031E4007570646174652E32303230313030312D77
:1031F400313632312F7372632F6E65776C69622FAB
:103204006E65776C69622F6C6962632F7374646C8A
:1032140069622F72616E642E63002C2066756E6382
:1032240074696F6E3A2000617373657274696F6EAE
:103234002022257322206661696C65643A206669E0
:103244006C6520222573222C206C696E6520256410
:10325400257325730A00232D302B2000686C4C0045
:103264006566674546470030313233343536373882
:1032740039414243444546003031323334353637E0
:103284003839616263646566000000000000000074
:10329400000000000000000000000000000000002A
:1032A400000000000000000000000000000000001A
:1032B400000000000000000000000000000000000A
:1032C40000000000000000000000000000000000FA
:1032D40000000000000000000000000000000000EA
:0C32E400000000000000000000000000DE
:0432F00031010008A0
:0432F4000D010008C0
:1032F80001000000010000000100000001000000C2
:1033080064000000010000000024F4001000000028
:10331800010000002800002000000000B032000872
:10332800D0320008903200080000000000000000C1
:103338000000000000000000000000000000000085
:103348000000000000000000000000000000000075
:103358000000000000000000000000000000000065
:103368000000000000000000000000000000000055
:0833780000000000000000004D
:0400000508000AA93C
:00000001FF
